{
  "_format": "hh-sol-artifact-1",
  "contractName": "MultiSigWallet",
  "sourceName": "contracts/Spades.sol",
  "abi": [
    {
      "inputs": [
        {
          "internalType": "address[]",
          "name": "_owners",
          "type": "address[]"
        },
        {
          "internalType": "uint256",
          "name": "_signaturesRequired",
          "type": "uint256"
        }
      ],
      "stateMutability": "nonpayable",
      "type": "constructor"
    },
    {
      "anonymous": false,
      "inputs": [
        {
          "indexed": false,
          "internalType": "address",
          "name": "sender",
          "type": "address"
        },
        {
          "indexed": false,
          "internalType": "uint256",
          "name": "value",
          "type": "uint256"
        }
      ],
      "name": "Deposit",
      "type": "event"
    },
    {
      "anonymous": false,
      "inputs": [
        {
          "indexed": false,
          "internalType": "address",
          "name": "_to",
          "type": "address"
        },
        {
          "indexed": false,
          "internalType": "uint256",
          "name": "_value",
          "type": "uint256"
        },
        {
          "indexed": false,
          "internalType": "bool",
          "name": "executed",
          "type": "bool"
        }
      ],
      "name": "Submit",
      "type": "event"
    },
    {
      "anonymous": false,
      "inputs": [
        {
          "indexed": true,
          "internalType": "address",
          "name": "owner",
          "type": "address"
        },
        {
          "indexed": true,
          "internalType": "uint256",
          "name": "tx_Index",
          "type": "uint256"
        }
      ],
      "name": "transactionExecuted",
      "type": "event"
    },
    {
      "inputs": [
        {
          "internalType": "address",
          "name": "",
          "type": "address"
        }
      ],
      "name": "OwnersCheck",
      "outputs": [
        {
          "internalType": "bool",
          "name": "",
          "type": "bool"
        }
      ],
      "stateMutability": "view",
      "type": "function"
    },
    {
      "inputs": [
        {
          "internalType": "uint256",
          "name": "",
          "type": "uint256"
        }
      ],
      "name": "owners",
      "outputs": [
        {
          "internalType": "address",
          "name": "",
          "type": "address"
        }
      ],
      "stateMutability": "view",
      "type": "function"
    },
    {
      "inputs": [],
      "name": "requiredSignatures",
      "outputs": [
        {
          "internalType": "uint256",
          "name": "",
          "type": "uint256"
        }
      ],
      "stateMutability": "view",
      "type": "function"
    },
    {
      "inputs": [
        {
          "internalType": "uint256",
          "name": "_txIndex",
          "type": "uint256"
        }
      ],
      "name": "signTransaction",
      "outputs": [],
      "stateMutability": "nonpayable",
      "type": "function"
    },
    {
      "inputs": [
        {
          "internalType": "address",
          "name": "_to",
          "type": "address"
        },
        {
          "internalType": "uint256",
          "name": "_value",
          "type": "uint256"
        }
      ],
      "name": "submit",
      "outputs": [],
      "stateMutability": "nonpayable",
      "type": "function"
    },
    {
      "inputs": [],
      "name": "timeFrame",
      "outputs": [
        {
          "internalType": "uint256",
          "name": "",
          "type": "uint256"
        }
      ],
      "stateMutability": "view",
      "type": "function"
    },
    {
      "inputs": [
        {
          "internalType": "uint256",
          "name": "",
          "type": "uint256"
        }
      ],
      "name": "transactions",
      "outputs": [
        {
          "internalType": "address",
          "name": "to",
          "type": "address"
        },
        {
          "internalType": "uint256",
          "name": "value",
          "type": "uint256"
        },
        {
          "internalType": "uint256",
          "name": "confirmations",
          "type": "uint256"
        },
        {
          "internalType": "bool",
          "name": "executed",
          "type": "bool"
        }
      ],
      "stateMutability": "view",
      "type": "function"
    },
    {
      "stateMutability": "payable",
      "type": "receive"
    }
  ],
  "bytecode": "0x60806040523480156200001157600080fd5b50604051620010bd380380620010bd8339818101604052810190620000379190620003d9565b60008251116200007e576040517f08c379a00000000000000000000000000000000000000000000000000000000081526004016200007590620005a1565b60405180910390fd5b60008111801562000090575081518111155b620000d2576040517f08c379a0000000000000000000000000000000000000000000000000000000008152600401620000c9906200057f565b60405180910390fd5b60005b8251811015620002f95760008382815181106200011b577f4e487b7100000000000000000000000000000000000000000000000000000000600052603260045260246000fd5b60200260200101519050600073ffffffffffffffffffffffffffffffffffffffff168173ffffffffffffffffffffffffffffffffffffffff16141562000198576040517f08c379a00000000000000000000000000000000000000000000000000000000081526004016200018f906200053b565b60405180910390fd5b600160008273ffffffffffffffffffffffffffffffffffffffff1673ffffffffffffffffffffffffffffffffffffffff16815260200190815260200160002060009054906101000a900460ff161562000228576040517f08c379a00000000000000000000000000000000000000000000000000000000081526004016200021f906200055d565b60405180910390fd5b60018060008373ffffffffffffffffffffffffffffffffffffffff1673ffffffffffffffffffffffffffffffffffffffff16815260200190815260200160002060006101000a81548160ff0219169083151502179055506000819080600181540180825580915050600190039060005260206000200160009091909190916101000a81548173ffffffffffffffffffffffffffffffffffffffff021916908373ffffffffffffffffffffffffffffffffffffffff160217905550508080620002f09062000675565b915050620000d5565b5080600281905550505062000755565b6000620003206200031a84620005f7565b620005c3565b905080838252602082019050828560208602820111156200034057600080fd5b60005b858110156200037457816200035988826200037e565b84526020840193506020830192505060018101905062000343565b5050509392505050565b6000815190506200038f8162000721565b92915050565b600082601f830112620003a757600080fd5b8151620003b984826020860162000309565b91505092915050565b600081519050620003d3816200073b565b92915050565b60008060408385031215620003ed57600080fd5b600083015167ffffffffffffffff8111156200040857600080fd5b620004168582860162000395565b92505060206200042985828601620003c2565b9150509250929050565b600062000442600d8362000626565b91507f496e76616c6964206f776e6572000000000000000000000000000000000000006000830152602082019050919050565b60006200048460108362000626565b91507f4f776e6572206e6f7420756e69717565000000000000000000000000000000006000830152602082019050919050565b6000620004c660208362000626565b91507f496e76616c69642c2064756520746f206e756d626572206f66206f776e6572736000830152602082019050919050565b60006200050860118362000626565b91507f4e6f7420656e6f756768206f776e6572730000000000000000000000000000006000830152602082019050919050565b60006020820190508181036000830152620005568162000433565b9050919050565b60006020820190508181036000830152620005788162000475565b9050919050565b600060208201905081810360008301526200059a81620004b7565b9050919050565b60006020820190508181036000830152620005bc81620004f9565b9050919050565b6000604051905081810181811067ffffffffffffffff82111715620005ed57620005ec620006f2565b5b8060405250919050565b600067ffffffffffffffff821115620006155762000614620006f2565b5b602082029050602081019050919050565b600082825260208201905092915050565b600062000644826200064b565b9050919050565b600073ffffffffffffffffffffffffffffffffffffffff82169050919050565b6000819050919050565b600062000682826200066b565b91507fffffffffffffffffffffffffffffffffffffffffffffffffffffffffffffffff821415620006b857620006b7620006c3565b5b600182019050919050565b7f4e487b7100000000000000000000000000000000000000000000000000000000600052601160045260246000fd5b7f4e487b7100000000000000000000000000000000000000000000000000000000600052604160045260246000fd5b6200072c8162000637565b81146200073857600080fd5b50565b62000746816200066b565b81146200075257600080fd5b50565b61095880620007656000396000f3fe6080604052600436106100745760003560e01c80635d9ec2101161004e5780635d9ec2101461015c5780638b13b64b146101855780638d068043146101b05780639ace38c2146101db576100b4565b8063025e7c27146100b9578063203dd666146100f65780633c5311e61461011f576100b4565b366100b4577fe1fffcc4923d04b559f4d29a8bfc6cda04eb5b0d3c460751c2402c5c5cc9109c33346040516100aa929190610732565b60405180910390a1005b600080fd5b3480156100c557600080fd5b506100e060048036038101906100db9190610641565b61021b565b6040516100ed9190610717565b60405180910390f35b34801561010257600080fd5b5061011d60048036038101906101189190610605565b61025a565b005b34801561012b57600080fd5b50610146600480360381019061014191906105dc565b6103d8565b60405161015391906107a0565b60405180910390f35b34801561016857600080fd5b50610183600480360381019061017e9190610641565b6103f8565b005b34801561019157600080fd5b5061019a610539565b6040516101a791906107fb565b60405180910390f35b3480156101bc57600080fd5b506101c561053f565b6040516101d291906107fb565b60405180910390f35b3480156101e757600080fd5b5061020260048036038101906101fd9190610641565b610545565b604051610212949392919061075b565b60405180910390f35b6000818154811061022b57600080fd5b906000526020600020016000915054906101000a900473ffffffffffffffffffffffffffffffffffffffff1681565b600160003373ffffffffffffffffffffffffffffffffffffffff1673ffffffffffffffffffffffffffffffffffffffff16815260200190815260200160002060009054906101000a900460ff166102e6576040517f08c379a00000000000000000000000000000000000000000000000000000000081526004016102dd906107db565b60405180910390fd5b60006004805490509050600460405180608001604052808573ffffffffffffffffffffffffffffffffffffffff1681526020018481526020016000815260200160001515815250908060018154018082558091505060019003906000526020600020906004020160009091909190915060008201518160000160006101000a81548173ffffffffffffffffffffffffffffffffffffffff021916908373ffffffffffffffffffffffffffffffffffffffff160217905550602082015181600101556040820151816002015560608201518160030160006101000a81548160ff0219169083151502179055505050505050565b60016020528060005260406000206000915054906101000a900460ff1681565b600160003373ffffffffffffffffffffffffffffffffffffffff1673ffffffffffffffffffffffffffffffffffffffff16815260200190815260200160002060009054906101000a900460ff16610484576040517f08c379a000000000000000000000000000000000000000000000000000000000815260040161047b906107db565b60405180910390fd5b8060048054905081106104cc576040517f08c379a00000000000000000000000000000000000000000000000000000000081526004016104c3906107bb565b60405180910390fd5b600060048381548110610508577f4e487b7100000000000000000000000000000000000000000000000000000000600052603260045260246000fd5b90600052602060002090600402019050600181600201600082825461052d9190610827565b92505081905550505050565b60035481565b60025481565b6004818154811061055557600080fd5b90600052602060002090600402016000915090508060000160009054906101000a900473ffffffffffffffffffffffffffffffffffffffff16908060010154908060020154908060030160009054906101000a900460ff16905084565b6000813590506105c1816108f4565b92915050565b6000813590506105d68161090b565b92915050565b6000602082840312156105ee57600080fd5b60006105fc848285016105b2565b91505092915050565b6000806040838503121561061857600080fd5b6000610626858286016105b2565b9250506020610637858286016105c7565b9150509250929050565b60006020828403121561065357600080fd5b6000610661848285016105c7565b91505092915050565b6106738161087d565b82525050565b6106828161088f565b82525050565b6000610695601083610816565b91507f547820646f65736e2774206578697374000000000000000000000000000000006000830152602082019050919050565b60006106d5600983610816565b91507f4e6f74206f776e657200000000000000000000000000000000000000000000006000830152602082019050919050565b610711816108bb565b82525050565b600060208201905061072c600083018461066a565b92915050565b6000604082019050610747600083018561066a565b6107546020830184610708565b9392505050565b6000608082019050610770600083018761066a565b61077d6020830186610708565b61078a6040830185610708565b6107976060830184610679565b95945050505050565b60006020820190506107b56000830184610679565b92915050565b600060208201905081810360008301526107d481610688565b9050919050565b600060208201905081810360008301526107f4816106c8565b9050919050565b60006020820190506108106000830184610708565b92915050565b600082825260208201905092915050565b6000610832826108bb565b915061083d836108bb565b9250827fffffffffffffffffffffffffffffffffffffffffffffffffffffffffffffffff03821115610872576108716108c5565b5b828201905092915050565b60006108888261089b565b9050919050565b60008115159050919050565b600073ffffffffffffffffffffffffffffffffffffffff82169050919050565b6000819050919050565b7f4e487b7100000000000000000000000000000000000000000000000000000000600052601160045260246000fd5b6108fd8161087d565b811461090857600080fd5b50565b610914816108bb565b811461091f57600080fd5b5056fea2646970667358221220fad2b7995a3238526f7db598e17b8dc2ce6f82e8ed372ae969e5aa97e69130c164736f6c63430008000033",
  "linkReferences": {},
  "deployedLinkReferences": {}
}